{
  "_format": "hh-sol-artifact-1",
  "contractName": "Transaction",
  "sourceName": "contracts/Transaction.sol",
  "abi": [
    {
      "anonymous": false,
      "inputs": [
        {
          "indexed": false,
          "internalType": "address",
          "name": "from",
          "type": "address"
        },
        {
          "indexed": false,
          "internalType": "address",
          "name": "receiver",
          "type": "address"
        },
        {
          "indexed": false,
          "internalType": "uint256",
          "name": "amount",
          "type": "uint256"
        },
        {
          "indexed": false,
          "internalType": "string",
          "name": "message",
          "type": "string"
        },
        {
          "indexed": false,
          "internalType": "uint256",
          "name": "timestamp",
          "type": "uint256"
        },
        {
          "indexed": false,
          "internalType": "string",
          "name": "keyword",
          "type": "string"
        }
      ],
      "name": "Transfer",
      "type": "event"
    },
    {
      "inputs": [
        {
          "internalType": "address payable",
          "name": "receiver",
          "type": "address"
        },
        {
          "internalType": "uint256",
          "name": "amount",
          "type": "uint256"
        },
        {
          "internalType": "string",
          "name": "message",
          "type": "string"
        },
        {
          "internalType": "string",
          "name": "keyword",
          "type": "string"
        }
      ],
      "name": "addToBlockChain",
      "outputs": [],
      "stateMutability": "nonpayable",
      "type": "function"
    },
    {
      "inputs": [],
      "name": "getAllTransactions",
      "outputs": [
        {
          "components": [
            {
              "internalType": "address",
              "name": "from",
              "type": "address"
            },
            {
              "internalType": "address",
              "name": "receiver",
              "type": "address"
            },
            {
              "internalType": "uint256",
              "name": "amount",
              "type": "uint256"
            },
            {
              "internalType": "string",
              "name": "message",
              "type": "string"
            },
            {
              "internalType": "uint256",
              "name": "timestamp",
              "type": "uint256"
            },
            {
              "internalType": "string",
              "name": "keyword",
              "type": "string"
            }
          ],
          "internalType": "struct Transaction.TransferStruct[]",
          "name": "",
          "type": "tuple[]"
        }
      ],
      "stateMutability": "view",
      "type": "function"
    },
    {
      "inputs": [],
      "name": "getTransactionCount",
      "outputs": [
        {
          "internalType": "uint256",
          "name": "",
          "type": "uint256"
        }
      ],
      "stateMutability": "view",
      "type": "function"
    },
    {
      "inputs": [
        {
          "internalType": "uint256",
          "name": "",
          "type": "uint256"
        }
      ],
      "name": "transactions",
      "outputs": [
        {
          "internalType": "address",
          "name": "from",
          "type": "address"
        },
        {
          "internalType": "address",
          "name": "receiver",
          "type": "address"
        },
        {
          "internalType": "uint256",
          "name": "amount",
          "type": "uint256"
        },
        {
          "internalType": "string",
          "name": "message",
          "type": "string"
        },
        {
          "internalType": "uint256",
          "name": "timestamp",
          "type": "uint256"
        },
        {
          "internalType": "string",
          "name": "keyword",
          "type": "string"
        }
      ],
      "stateMutability": "view",
      "type": "function"
    }
  ],
  "bytecode": "0x608060405234801561001057600080fd5b50611096806100206000396000f3fe608060405234801561001057600080fd5b506004361061004c5760003560e01c806327506f53146100515780632e7700f01461006f5780639ace38c21461008d578063b2da0960146100c2575b600080fd5b6100596100de565b60405161006691906108b4565b60405180910390f35b610077610321565b60405161008491906108e5565b60405180910390f35b6100a760048036038101906100a29190610940565b61032a565b6040516100b9969594939291906109c6565b60405180910390f35b6100dc60048036038101906100d79190610ba8565b6104c6565b005b60606001805480602002602001604051908101604052809291908181526020016000905b8282101561031857838290600052602060002090600602016040518060c00160405290816000820160009054906101000a900473ffffffffffffffffffffffffffffffffffffffff1673ffffffffffffffffffffffffffffffffffffffff1673ffffffffffffffffffffffffffffffffffffffff1681526020016001820160009054906101000a900473ffffffffffffffffffffffffffffffffffffffff1673ffffffffffffffffffffffffffffffffffffffff1673ffffffffffffffffffffffffffffffffffffffff168152602001600282015481526020016003820180546101eb90610c76565b80601f016020809104026020016040519081016040528092919081815260200182805461021790610c76565b80156102645780601f1061023957610100808354040283529160200191610264565b820191906000526020600020905b81548152906001019060200180831161024757829003601f168201915b505050505081526020016004820154815260200160058201805461028790610c76565b80601f01602080910402602001604051908101604052809291908181526020018280546102b390610c76565b80156103005780601f106102d557610100808354040283529160200191610300565b820191906000526020600020905b8154815290600101906020018083116102e357829003601f168201915b50505050508152505081526020019060010190610102565b50505050905090565b60008054905090565b6001818154811061033a57600080fd5b90600052602060002090600602016000915090508060000160009054906101000a900473ffffffffffffffffffffffffffffffffffffffff16908060010160009054906101000a900473ffffffffffffffffffffffffffffffffffffffff16908060020154908060030180546103af90610c76565b80601f01602080910402602001604051908101604052809291908181526020018280546103db90610c76565b80156104285780601f106103fd57610100808354040283529160200191610428565b820191906000526020600020905b81548152906001019060200180831161040b57829003601f168201915b50505050509080600401549080600501805461044390610c76565b80601f016020809104026020016040519081016040528092919081815260200182805461046f90610c76565b80156104bc5780601f10610491576101008083540402835291602001916104bc565b820191906000526020600020905b81548152906001019060200180831161049f57829003601f168201915b5050505050905086565b60016040518060c001604052803373ffffffffffffffffffffffffffffffffffffffff1681526020018673ffffffffffffffffffffffffffffffffffffffff16815260200185815260200184815260200142815260200183815250908060018154018082558091505060019003906000526020600020906006020160009091909190915060008201518160000160006101000a81548173ffffffffffffffffffffffffffffffffffffffff021916908373ffffffffffffffffffffffffffffffffffffffff16021790555060208201518160010160006101000a81548173ffffffffffffffffffffffffffffffffffffffff021916908373ffffffffffffffffffffffffffffffffffffffff1602179055506040820151816002015560608201518160030190816105f79190610e53565b506080820151816004015560a08201518160050190816106179190610e53565b5050507f416cfa4330a4565f45c2fd2dd4826a83a37443aba2ce6f79477c7355afac35fa33858585428660405161065396959493929190610f7a565b60405180910390a160008081548092919061066d90611018565b919050555050505050565b600081519050919050565b600082825260208201905092915050565b6000819050602082019050919050565b600073ffffffffffffffffffffffffffffffffffffffff82169050919050565b60006106cf826106a4565b9050919050565b6106df816106c4565b82525050565b6000819050919050565b6106f8816106e5565b82525050565b600081519050919050565b600082825260208201905092915050565b60005b8381101561073857808201518184015260208101905061071d565b60008484015250505050565b6000601f19601f8301169050919050565b6000610760826106fe565b61076a8185610709565b935061077a81856020860161071a565b61078381610744565b840191505092915050565b600060c0830160008301516107a660008601826106d6565b5060208301516107b960208601826106d6565b5060408301516107cc60408601826106ef565b50606083015184820360608601526107e48282610755565b91505060808301516107f960808601826106ef565b5060a083015184820360a08601526108118282610755565b9150508091505092915050565b600061082a838361078e565b905092915050565b6000602082019050919050565b600061084a82610678565b6108548185610683565b93508360208202850161086685610694565b8060005b858110156108a25784840389528151610883858261081e565b945061088e83610832565b925060208a0199505060018101905061086a565b50829750879550505050505092915050565b600060208201905081810360008301526108ce818461083f565b905092915050565b6108df816106e5565b82525050565b60006020820190506108fa60008301846108d6565b92915050565b6000604051905090565b600080fd5b600080fd5b61091d816106e5565b811461092857600080fd5b50565b60008135905061093a81610914565b92915050565b6000602082840312156109565761095561090a565b5b60006109648482850161092b565b91505092915050565b610976816106c4565b82525050565b600082825260208201905092915050565b6000610998826106fe565b6109a2818561097c565b93506109b281856020860161071a565b6109bb81610744565b840191505092915050565b600060c0820190506109db600083018961096d565b6109e8602083018861096d565b6109f560408301876108d6565b8181036060830152610a07818661098d565b9050610a1660808301856108d6565b81810360a0830152610a28818461098d565b9050979650505050505050565b6000610a40826106a4565b9050919050565b610a5081610a35565b8114610a5b57600080fd5b50565b600081359050610a6d81610a47565b92915050565b600080fd5b600080fd5b7f4e487b7100000000000000000000000000000000000000000000000000000000600052604160045260246000fd5b610ab582610744565b810181811067ffffffffffffffff82111715610ad457610ad3610a7d565b5b80604052505050565b6000610ae7610900565b9050610af38282610aac565b919050565b600067ffffffffffffffff821115610b1357610b12610a7d565b5b610b1c82610744565b9050602081019050919050565b82818337600083830152505050565b6000610b4b610b4684610af8565b610add565b905082815260208101848484011115610b6757610b66610a78565b5b610b72848285610b29565b509392505050565b600082601f830112610b8f57610b8e610a73565b5b8135610b9f848260208601610b38565b91505092915050565b60008060008060808587031215610bc257610bc161090a565b5b6000610bd087828801610a5e565b9450506020610be18782880161092b565b935050604085013567ffffffffffffffff811115610c0257610c0161090f565b5b610c0e87828801610b7a565b925050606085013567ffffffffffffffff811115610c2f57610c2e61090f565b5b610c3b87828801610b7a565b91505092959194509250565b7f4e487b7100000000000000000000000000000000000000000000000000000000600052602260045260246000fd5b60006002820490506001821680610c8e57607f821691505b602082108103610ca157610ca0610c47565b5b50919050565b60008190508160005260206000209050919050565b60006020601f8301049050919050565b600082821b905092915050565b600060088302610d097fffffffffffffffffffffffffffffffffffffffffffffffffffffffffffffffff82610ccc565b610d138683610ccc565b95508019841693508086168417925050509392505050565b6000819050919050565b6000610d50610d4b610d46846106e5565b610d2b565b6106e5565b9050919050565b6000819050919050565b610d6a83610d35565b610d7e610d7682610d57565b848454610cd9565b825550505050565b600090565b610d93610d86565b610d9e818484610d61565b505050565b5b81811015610dc257610db7600082610d8b565b600181019050610da4565b5050565b601f821115610e0757610dd881610ca7565b610de184610cbc565b81016020851015610df0578190505b610e04610dfc85610cbc565b830182610da3565b50505b505050565b600082821c905092915050565b6000610e2a60001984600802610e0c565b1980831691505092915050565b6000610e438383610e19565b9150826002028217905092915050565b610e5c826106fe565b67ffffffffffffffff811115610e7557610e74610a7d565b5b610e7f8254610c76565b610e8a828285610dc6565b600060209050601f831160018114610ebd5760008415610eab578287015190505b610eb58582610e37565b865550610f1d565b601f198416610ecb86610ca7565b60005b82811015610ef357848901518255600182019150602085019450602081019050610ece565b86831015610f105784890151610f0c601f891682610e19565b8355505b6001600288020188555050505b505050505050565b6000610f40610f3b610f36846106a4565b610d2b565b6106a4565b9050919050565b6000610f5282610f25565b9050919050565b6000610f6482610f47565b9050919050565b610f7481610f59565b82525050565b600060c082019050610f8f600083018961096d565b610f9c6020830188610f6b565b610fa960408301876108d6565b8181036060830152610fbb818661098d565b9050610fca60808301856108d6565b81810360a0830152610fdc818461098d565b9050979650505050505050565b7f4e487b7100000000000000000000000000000000000000000000000000000000600052601160045260246000fd5b6000611023826106e5565b91507fffffffffffffffffffffffffffffffffffffffffffffffffffffffffffffffff820361105557611054610fe9565b5b60018201905091905056fea26469706673582212209cdaf83d80f45bc78aea1d7a07d9e605c289d9ba0bcb319f5d8f6901d14b9b6d64736f6c63430008130033",
  "linkReferences": {},
  "deployedLinkReferences": {}
}